:100000000C9434000C9449000C9449000C94490061
:100010000C9449000C9449000C9449000C9449003C
:100020000C9449000C9449000C944B000C9449002A
:100030000C9449000C9449000C9449000C9449001C
:100040000C9449000C9449000C9449000C9449000C
:100050000C9449000C9449000C9449000C944900FC
:100060000C9449000C94490011241FBECFEFD8E036
:10007000DEBFCDBF11E0A0E0B1E0ECE7F1E002C0EF
:1000800005900D92A632B107D9F70E9478000C9422
:10009000BC000C9400008F938FB78F939F93EF93C6
:1000A000FF93E0910E01F0910F01808180628083C7
:1000B000E0911001F0911101808190E48927808303
:1000C000E0911001F09111018081E0911C01F0910B
:1000D0001D0186FF0AC0808180628083FF91EF91BD
:1000E0009F918F918FBF8F91189580818F7DF5CFD4
:1000F000E0912201F091230180818E7F8083E09145
:100100002201F0912301808180628083E0911C01B3
:10011000F0911D01808181608083E0911201F09156
:1001200013011082E0910C01F0910D0111821082F7
:10013000E0910201F0910301808180688083E09169
:100140000E01F0910F01808180628083E0910401B3
:10015000F0910501808180628083E0911001F0912F
:100160001101808184608083E0911001F091110180
:0C01700080818F7B8083FFCFF894FFCF4D
:10017C0086005F006F0088008800850084003600D0
:10018C0081008000260023002900280025002B0078
:06019C00270024002A00E8
:00000001FF
