:100000000C9434000C9449000C9449000C94490061
:100010000C9449000C9449000C9449000C9449003C
:100020000C9449000C9449000C9449000C944B002A
:100030000C9449000C9449000C9449000C9449001C
:100040000C9449000C9449000C9449000C9449000C
:100050000C9449000C9449000C9449000C944900FC
:100060000C9449000C94490011241FBECFEFD8E036
:10007000DEBFCDBF11E0A0E0B1E0E4E4F1E002C0FA
:1000800005900D92A432B107D9F70E9467000C9435
:10009000A0000C9400008F938FB78F939F93EF93E2
:1000A000FF93E0911A01F0911B01808180628083AF
:1000B000E0911001F0911101808190E48927808303
:1000C000FF91EF919F918F918FBF8F911895E09144
:1000D0002001F0912101808182628083E0911001F2
:1000E000F09111018081806C8083E0910A01F09190
:1000F0000B0111821082E0910601F091070183E269
:1001000094EF91838083E0910201F091030180815B
:1001100082608083E0910C01F0910D01808182600A
:100120008083E0910001F0910101808180688083EB
:10013000E0910E01F0910F0180818C608083FFCFF0
:04014000F894FFCF61
:100144005F006F008800880085008400360081000D
:100154008000260023002900280025002B0027000A
:0401640024002A0049
:00000001FF
