:100000000C9434000C9449000C9449000C94490061
:100010000C9449000C9449000C9449000C9449003C
:100020000C9449000C9449000C9449000C9449002C
:100030000C9449000C9449000C9449000C9449001C
:100040000C9449000C9449000C9449000C9449000C
:100050000C9449000C9449000C9449000C944900FC
:100060000C9449000C94490011241FBECFEFD8E036
:10007000DEBFCDBF11E0A0E0B1E0E2EEF0E002C0F3
:1000800005900D92A432B107D9F70E944B000C9451
:100090006F000C940000E0911001F091110180813B
:1000A00080648083E0910E01F0910F0180818C606B
:1000B0008083E0910A01F0910B0111821082E0919E
:1000C0000601F091070183E294EF91838083E09130
:1000D0002001F0912101808182608083FFCFF8941C
:0200E000FFCF50
:1000E2005F006F0088008800850084003600810070
:1000F2008000260023002900280025002B0027006D
:0401020024002A00AB
:00000001FF
